{
  "contractName": "EncryptedToken",
  "abi": [
    {
      "inputs": [],
      "payable": false,
      "stateMutability": "nonpayable",
      "type": "constructor"
    },
    {
      "constant": false,
      "inputs": [
        {
          "name": "_to",
          "type": "address"
        },
        {
          "name": "_amount",
          "type": "uint256"
        }
      ],
      "name": "transfer",
      "outputs": [],
      "payable": false,
      "stateMutability": "nonpayable",
      "type": "function"
    },
    {
      "constant": true,
      "inputs": [
        {
          "name": "_owner",
          "type": "address"
        }
      ],
      "name": "balanceOf",
      "outputs": [
        {
          "name": "",
          "type": "uint256"
        }
      ],
      "payable": false,
      "stateMutability": "view",
      "type": "function"
    }
  ],
  "bytecode": "0x60806040526301406f4060005534801561001857600080fd5b50600054600160003373ffffffffffffffffffffffffffffffffffffffff1673ffffffffffffffffffffffffffffffffffffffff168152602001908152602001600020819055506102538061006e6000396000f30060806040526004361061004c576000357c0100000000000000000000000000000000000000000000000000000000900463ffffffff16806370a0823114610051578063a9059cbb146100a8575b600080fd5b34801561005d57600080fd5b50610092600480360381019080803573ffffffffffffffffffffffffffffffffffffffff1690602001909291905050506100f5565b6040518082815260200191505060405180910390f35b3480156100b457600080fd5b506100f3600480360381019080803573ffffffffffffffffffffffffffffffffffffffff1690602001909291908035906020019092919050505061013e565b005b6000600160008373ffffffffffffffffffffffffffffffffffffffff1673ffffffffffffffffffffffffffffffffffffffff168152602001908152602001600020549050919050565b80600160003373ffffffffffffffffffffffffffffffffffffffff1673ffffffffffffffffffffffffffffffffffffffff168152602001908152602001600020541015151561018957fe5b80600160003373ffffffffffffffffffffffffffffffffffffffff1673ffffffffffffffffffffffffffffffffffffffff1681526020019081526020016000206000828254039250508190555080600160008473ffffffffffffffffffffffffffffffffffffffff1673ffffffffffffffffffffffffffffffffffffffff1681526020019081526020016000206000828254019250508190555050505600a165627a7a72305820e8c7cbca56fbfea85bc06e9ced63164bf28a2e7879c22b9f25d3b26eaa62ef030029",
  "source": "pragma solidity ^0.4.17;\n\ncontract EncryptedToken {\n  uint256 INITIAL_SUPPLY = 21000000;\n  mapping (address => uint256) balances;\n  function EncryptedToken() {\n    balances[msg.sender] = INITIAL_SUPPLY;\n  }\n\n  //转帐到一个指定的地址\n  function transfer(address _to, uint256 _amount) {\n    assert(balances[msg.sender] >= _amount);\n    balances[msg.sender] -= _amount;\n    balances[_to] += _amount;\n  }\n\n  //查看指定地址的余额\n  function balanceOf(address _owner) constant returns (uint256) {\n    return balances[_owner];\n  }\n}\n",
  "sourcePath": "/Users/chenhui13/BlockChain/ETH_contract_demos/EncryptedToken/contracts/EncryptedToken.sol",
  "compiler": {
    "name": "solc",
    "version": "0.4.23+commit.124ca40d.Emscripten.clang"
  },
  "schemaVersion": "2.0.0",
  "updatedAt": "2018-05-06T03:56:02.275Z"
}